{
  "contractName": "TodoList",
  "abi": [
    {
      "anonymous": false,
      "inputs": [
        {
          "indexed": true,
          "internalType": "address",
          "name": "owner",
          "type": "address"
        },
        {
          "indexed": true,
          "internalType": "uint256",
          "name": "id",
          "type": "uint256"
        },
        {
          "indexed": false,
          "internalType": "string",
          "name": "value",
          "type": "string"
        }
      ],
      "name": "ItemCreated",
      "type": "event"
    },
    {
      "anonymous": false,
      "inputs": [
        {
          "indexed": true,
          "internalType": "address",
          "name": "owner",
          "type": "address"
        },
        {
          "indexed": true,
          "internalType": "uint256",
          "name": "id",
          "type": "uint256"
        },
        {
          "indexed": false,
          "internalType": "bool",
          "name": "isCompleted",
          "type": "bool"
        }
      ],
      "name": "ItemUpdated",
      "type": "event"
    },
    {
      "inputs": [
        {
          "internalType": "address",
          "name": "",
          "type": "address"
        },
        {
          "internalType": "uint256",
          "name": "",
          "type": "uint256"
        }
      ],
      "name": "items",
      "outputs": [
        {
          "internalType": "uint256",
          "name": "id",
          "type": "uint256"
        },
        {
          "internalType": "string",
          "name": "title",
          "type": "string"
        },
        {
          "internalType": "bool",
          "name": "isCompleted",
          "type": "bool"
        }
      ],
      "stateMutability": "view",
      "type": "function",
      "constant": true
    },
    {
      "inputs": [],
      "name": "getItems",
      "outputs": [
        {
          "components": [
            {
              "internalType": "uint256",
              "name": "id",
              "type": "uint256"
            },
            {
              "internalType": "string",
              "name": "title",
              "type": "string"
            },
            {
              "internalType": "bool",
              "name": "isCompleted",
              "type": "bool"
            }
          ],
          "internalType": "struct TodoList.TodoItem[]",
          "name": "",
          "type": "tuple[]"
        }
      ],
      "stateMutability": "view",
      "type": "function",
      "constant": true
    },
    {
      "inputs": [
        {
          "internalType": "string",
          "name": "value",
          "type": "string"
        }
      ],
      "name": "add",
      "outputs": [],
      "stateMutability": "nonpayable",
      "type": "function"
    },
    {
      "inputs": [
        {
          "internalType": "uint256",
          "name": "_id",
          "type": "uint256"
        },
        {
          "internalType": "bool",
          "name": "isComplete",
          "type": "bool"
        }
      ],
      "name": "toggle",
      "outputs": [],
      "stateMutability": "nonpayable",
      "type": "function"
    }
  ],
  "bytecode": "0x608060405234801561001057600080fd5b506110c6806100206000396000f3fe608060405234801561001057600080fd5b506004361061004c5760003560e01c806317bc640a14610051578063410d59cc1461006d5780635c80a4351461008b578063b0c8f9dc146100bd575b600080fd5b61006b6004803603810190610066919061077f565b6100d9565b005b6100756101da565b604051610082919061097f565b60405180910390f35b6100a560048036038101906100a091906109ff565b610433565b6040516100b493929190610aa7565b60405180910390f35b6100d760048036038101906100d29190610c1a565b6104ff565b005b6000821161011c576040517f08c379a000000000000000000000000000000000000000000000000000000000815260040161011390610caf565b60405180910390fd5b80600160003373ffffffffffffffffffffffffffffffffffffffff1673ffffffffffffffffffffffffffffffffffffffff168152602001908152602001600020600084815260200190815260200160002060020160006101000a81548160ff021916908315150217905550813373ffffffffffffffffffffffffffffffffffffffff167f72ebbf3d84dbd81b85c9883ddf48fafb859b4589d4878e82f89610c6282edc6b836040516101ce9190610ccf565b60405180910390a35050565b60606000600260003373ffffffffffffffffffffffffffffffffffffffff1673ffffffffffffffffffffffffffffffffffffffff16815260200190815260200160002080549050905060008167ffffffffffffffff81111561023f5761023e610aef565b5b60405190808252806020026020018201604052801561027857816020015b6102656106da565b81526020019060019003908161025d5790505b50905060005b8281101561042a576000600260003373ffffffffffffffffffffffffffffffffffffffff1673ffffffffffffffffffffffffffffffffffffffff16815260200190815260200160002082815481106102d9576102d8610cea565b5b90600052602060002001549050600160003373ffffffffffffffffffffffffffffffffffffffff1673ffffffffffffffffffffffffffffffffffffffff16815260200190815260200160002060008281526020019081526020016000206040518060600160405290816000820154815260200160018201805461035b90610d48565b80601f016020809104026020016040519081016040528092919081815260200182805461038790610d48565b80156103d45780601f106103a9576101008083540402835291602001916103d4565b820191906000526020600020905b8154815290600101906020018083116103b757829003601f168201915b505050505081526020016002820160009054906101000a900460ff16151515158152505083838151811061040b5761040a610cea565b5b602002602001018190525050808061042290610da8565b91505061027e565b50809250505090565b60016020528160005260406000206020528060005260406000206000915091505080600001549080600101805461046990610d48565b80601f016020809104026020016040519081016040528092919081815260200182805461049590610d48565b80156104e25780601f106104b7576101008083540402835291602001916104e2565b820191906000526020600020905b8154815290600101906020018083116104c557829003601f168201915b5050505050908060020160009054906101000a900460ff16905083565b6000815111610543576040517f08c379a000000000000000000000000000000000000000000000000000000000815260040161053a90610caf565b60405180910390fd5b600061054d6106bf565b90506000604051806060016040528083815260200184815260200160001515815250905080600160003373ffffffffffffffffffffffffffffffffffffffff1673ffffffffffffffffffffffffffffffffffffffff16815260200190815260200160002060008481526020019081526020016000206000820151816000015560208201518160010190816105e19190610f9c565b5060408201518160020160006101000a81548160ff021916908315150217905550905050600260003373ffffffffffffffffffffffffffffffffffffffff1673ffffffffffffffffffffffffffffffffffffffff168152602001908152602001600020829080600181540180825580915050600190039060005260206000200160009091909190915055813373ffffffffffffffffffffffffffffffffffffffff167f77e4cbb0138f162921d80fadb675058ab30dbd5917de41ea153d859d8b0ff6a5856040516106b2919061106e565b60405180910390a3505050565b600080600081546106cf90610da8565b919050819055905090565b604051806060016040528060008152602001606081526020016000151581525090565b6000604051905090565b600080fd5b600080fd5b6000819050919050565b61072481610711565b811461072f57600080fd5b50565b6000813590506107418161071b565b92915050565b60008115159050919050565b61075c81610747565b811461076757600080fd5b50565b60008135905061077981610753565b92915050565b6000806040838503121561079657610795610707565b5b60006107a485828601610732565b92505060206107b58582860161076a565b9150509250929050565b600081519050919050565b600082825260208201905092915050565b6000819050602082019050919050565b6107f481610711565b82525050565b600081519050919050565b600082825260208201905092915050565b60005b83811015610834578082015181840152602081019050610819565b60008484015250505050565b6000601f19601f8301169050919050565b600061085c826107fa565b6108668185610805565b9350610876818560208601610816565b61087f81610840565b840191505092915050565b61089381610747565b82525050565b60006060830160008301516108b160008601826107eb565b50602083015184820360208601526108c98282610851565b91505060408301516108de604086018261088a565b508091505092915050565b60006108f58383610899565b905092915050565b6000602082019050919050565b6000610915826107bf565b61091f81856107ca565b935083602082028501610931856107db565b8060005b8581101561096d578484038952815161094e85826108e9565b9450610959836108fd565b925060208a01995050600181019050610935565b50829750879550505050505092915050565b60006020820190508181036000830152610999818461090a565b905092915050565b600073ffffffffffffffffffffffffffffffffffffffff82169050919050565b60006109cc826109a1565b9050919050565b6109dc816109c1565b81146109e757600080fd5b50565b6000813590506109f9816109d3565b92915050565b60008060408385031215610a1657610a15610707565b5b6000610a24858286016109ea565b9250506020610a3585828601610732565b9150509250929050565b610a4881610711565b82525050565b600082825260208201905092915050565b6000610a6a826107fa565b610a748185610a4e565b9350610a84818560208601610816565b610a8d81610840565b840191505092915050565b610aa181610747565b82525050565b6000606082019050610abc6000830186610a3f565b8181036020830152610ace8185610a5f565b9050610add6040830184610a98565b949350505050565b600080fd5b600080fd5b7f4e487b7100000000000000000000000000000000000000000000000000000000600052604160045260246000fd5b610b2782610840565b810181811067ffffffffffffffff82111715610b4657610b45610aef565b5b80604052505050565b6000610b596106fd565b9050610b658282610b1e565b919050565b600067ffffffffffffffff821115610b8557610b84610aef565b5b610b8e82610840565b9050602081019050919050565b82818337600083830152505050565b6000610bbd610bb884610b6a565b610b4f565b905082815260208101848484011115610bd957610bd8610aea565b5b610be4848285610b9b565b509392505050565b600082601f830112610c0157610c00610ae5565b5b8135610c11848260208601610baa565b91505092915050565b600060208284031215610c3057610c2f610707565b5b600082013567ffffffffffffffff811115610c4e57610c4d61070c565b5b610c5a84828501610bec565b91505092915050565b7f506c656173652061646420746f646f206974656d206e616d6500000000000000600082015250565b6000610c99601983610a4e565b9150610ca482610c63565b602082019050919050565b60006020820190508181036000830152610cc881610c8c565b9050919050565b6000602082019050610ce46000830184610a98565b92915050565b7f4e487b7100000000000000000000000000000000000000000000000000000000600052603260045260246000fd5b7f4e487b7100000000000000000000000000000000000000000000000000000000600052602260045260246000fd5b60006002820490506001821680610d6057607f821691505b602082108103610d7357610d72610d19565b5b50919050565b7f4e487b7100000000000000000000000000000000000000000000000000000000600052601160045260246000fd5b6000610db382610711565b91507fffffffffffffffffffffffffffffffffffffffffffffffffffffffffffffffff8203610de557610de4610d79565b5b600182019050919050565b60008190508160005260206000209050919050565b60006020601f8301049050919050565b600082821b905092915050565b600060088302610e527fffffffffffffffffffffffffffffffffffffffffffffffffffffffffffffffff82610e15565b610e5c8683610e15565b95508019841693508086168417925050509392505050565b6000819050919050565b6000610e99610e94610e8f84610711565b610e74565b610711565b9050919050565b6000819050919050565b610eb383610e7e565b610ec7610ebf82610ea0565b848454610e22565b825550505050565b600090565b610edc610ecf565b610ee7818484610eaa565b505050565b5b81811015610f0b57610f00600082610ed4565b600181019050610eed565b5050565b601f821115610f5057610f2181610df0565b610f2a84610e05565b81016020851015610f39578190505b610f4d610f4585610e05565b830182610eec565b50505b505050565b600082821c905092915050565b6000610f7360001984600802610f55565b1980831691505092915050565b6000610f8c8383610f62565b9150826002028217905092915050565b610fa5826107fa565b67ffffffffffffffff811115610fbe57610fbd610aef565b5b610fc88254610d48565b610fd3828285610f0f565b600060209050601f8311600181146110065760008415610ff4578287015190505b610ffe8582610f80565b865550611066565b601f19841661101486610df0565b60005b8281101561103c57848901518255600182019150602085019450602081019050611017565b868310156110595784890151611055601f891682610f62565b8355505b6001600288020188555050505b505050505050565b600060208201905081810360008301526110888184610a5f565b90509291505056fea26469706673582212200aa35f234b540345d79c0812043e99107c850d18b709aa335f6130f31053166e64736f6c63430008110033",
  "immutableReferences": {},
  "source": "// SPDX-License-Identifier: MIT\npragma solidity >=0.4.22 <0.9.0;\n\ncontract TodoList {\n    struct TodoItem {\n        uint id;\n        string title;\n        bool isCompleted;\n    }\n\n    uint lastId;\n    mapping(address => mapping(uint => TodoItem)) public items;\n    mapping(address => uint[]) itemsIds;\n\n    event ItemCreated (\n        address indexed owner,\n        uint indexed id,\n        string value\n    );\n\n    event ItemUpdated (\n        address indexed owner,\n        uint indexed id,\n        bool isCompleted\n    );\n\n    function getNextItemId() internal returns (uint) {\n        return ++lastId;\n    }\n\n    function getItems() view public returns (TodoItem[] memory) {\n        uint total = itemsIds[msg.sender].length;\n        TodoItem[] memory result = new TodoItem[](total);\n        for (uint i; i < total; i++) {\n            uint _id = itemsIds[msg.sender][i];\n            result[i] = items[msg.sender][_id];\n        }\n        return result;\n    }\n\n    function add(string memory value) external {\n        require(bytes(value).length > 0, \"Please add todo item name\");\n        uint id = getNextItemId();\n\n        TodoItem memory item = TodoItem(\n            id,\n            value,\n            false\n        );\n        items[msg.sender][id] = item;\n        itemsIds[msg.sender].push(id);\n\n        emit ItemCreated({\n            owner: msg.sender,\n            id: id,\n            value: value\n        });\n    }\n\n    function toggle(uint _id, bool isComplete) external {\n        require(_id > 0, \"Please add todo item name\");\n        items[msg.sender][_id].isCompleted = isComplete;\n\n        emit ItemUpdated({\n            owner: msg.sender,\n            id: _id,\n            isCompleted: isComplete\n        });\n    }\n}\n",
  "sourcePath": "/home/wasif/work/solidity/solidity-todo/solidity/contracts/TodoList.sol",
  "compiler": {
    "name": "solc",
    "version": "0.8.17+commit.8df45f5f.Emscripten.clang"
  },
  "schemaVersion": "3.4.10",
  "updatedAt": "2022-10-19T10:46:57.456Z",
  "networkType": "ethereum",
  "devdoc": {
    "kind": "dev",
    "methods": {},
    "version": 1
  },
  "userdoc": {
    "kind": "user",
    "methods": {},
    "version": 1
  }
}